:020000040800F2
:10000000005000205D200008851F0008871F0008A1
:10001000891F00088B1F00088D1F000800000000CA
:100020000000000000000000000000008F1F00081A
:10003000911F000800000000931F0008951F000892
:10004000A5200008A5200008A5200008A52000087C
:10005000A5200008A5200008A5200008A52000086C
:10006000A5200008A5200008A5200008A52000085C
:10007000A5200008A5200008A5200008A52000084C
:10008000A5200008A5200008A5200008A52000083C
:10009000A5200008A5200008A5200008A52000082C
:1000A000A5200008A5200008A5200008A52000081C
:1000B000A5200008A5200008A52000089D1F000815
:1000C000C51F0008A5200008A5200008A5200008DD
:1000D000A5200008A5200008A5200008A5200008EC
:1000E000A5200008A5200008A520000800000000A9
:1000F0000000000000000000000000000000000000
:0C01000000000000000000005FF808F1A3
:10010C0010B5054C237833B9044B13B10448AFF345
:10011C0000800123237010BD70000020000000003F
:10012C002029000808B5034B1BB103490348AFF362
:10013C00008008BD00000000740000202029000889
:10014C00034613F8012B002AFBD1181A013870470B
:10015C0010B504460E4B18784FF47A73B3FBF0F3DA
:10016C000C4A1068B0FBF3F000F08CF868B90F2C57
:10017C0001D901200AE0002221464FF0FF3000F0A7
:10018C0041F8034B5C60002000E0012010BD00BF73
:10019C00000000200800002008B5074A136843F04F
:1001AC0010031360032000F01BF80020FFF7D0FFB2
:1001BC0001F038FE002008BD00200240034A1168FF
:1001CC00034B1B780B441360704700BF9C0000204E
:1001DC0000000020014B1868704700BF9C000020F5
:1001EC00074AD36823F4E0631B041B0C000200F4E1
:1001FC00E060184340F0BF6040F40030D0607047BE
:10020C0000ED00E030B4174BDB68C3F30223C3F1FD
:10021C000704042C28BF04241D1D062D18D9033BEC
:10022C004FF0FF3505FA04F421EA0401994005FA70
:10023C0003F322EA0303194300280BDB0901C9B2BB
:10024C0000F1604000F5614080F8001330BC70474D
:10025C000023E5E700F00F000901C9B2024B195465
:10026C00F4E700BF00ED00E014ED00E000F01F0229
:10027C00400901239340024A42F82030704700BFE6
:10028C0000E100E00138B0F1807F0AD2064B5860E3
:10029C00064AF02182F823100020986007221A6089
:1002AC0070470120704700BF10E000E000ED00E057
:1002BC0008B590F82130022B03D00423836301206E
:1002CC0008BD0268136823F00E03136002681368FC
:1002DC0023F0010313600368194A934214D01432BB
:1002EC0093421FD0143293421ED0143293421ED02C
:1002FC00143293421ED01432934202D04FF08072CB
:10030C0003E04FF4801200E001220E4B5A600123EF
:10031C0080F82130002380F82030436B6BB1984774
:10032C000020CDE71022F0E74FF48072EDE74FF498
:10033C008052EAE74FF48032E7E70020C0E700BFC5
:10034C000800024000000240F0B482B0002635469E
:10035C00A1E0002C59D0012C00D1CE68FF2B68D81D
:10036C008446FF2B68D8AC00DCF800200F27A74090
:10037C0022EA070206FA04F42243CCF800204A6869
:10038C0012F0805F00F086805E4A946944F00104AC
:10039C009461926902F001020192019AAC08A71CC7
:1003AC00594A52F8272005F00307BF004FF00F0CF5
:1003BC000CFA07FC22EA0C0C544A904242D002F58B
:1003CC00806290427FD002F5806290427DD002F52F
:1003DC008062904234D0042235E04D4FBC4214D0A0
:1003EC000BD94C4FBC4210D007F58037BC420CD017
:1003FC00A7F58017BC42B1D107E0A7F58017BC4226
:10040C0003D007F58037BC42A8D18C687CB1012C95
:10041C0008D042610826A1E7CE6808369EE7CE6870
:10042C000C369BE70261082698E7002696E704261F
:10043C0094E700F1040C94E7A5F10804A40093E7F9
:10044C00032200E00022BA4042EA0C0202342E4F92
:10045C0047F824204A6812F4803F38D02E4C22688A
:10046C001A4322604A6812F4003F36D02A4C626864
:10047C001A4362604A6812F4801F34D0264CA2687A
:10048C001A43A2604A6812F4001F32D0224CE26870
:10049C001343E36001350F2D31D80122AA400B68BC
:1004AC0013409A42F6D14C68122CB8D095D8022C35
:1004BC00B2D07FF64EAF032CB7D0112C7FF44EAFD9
:1004CC00CE6804364AE70122BDE70222BBE7124C94
:1004DC00226822EA03022260C4E70F4C626822EA17
:1004EC0003026260C6E70C4CA26822EA0302A26017
:1004FC00C8E7094CE26822EA0303E360CAE702B0EA
:10050C00F0BC7047001002400000014000080140A0
:10051C0000002110000031100004014012B9090440
:10052C000161704701617047C3685940C1607047F1
:10053C0090F83E30DBB2402B13D00369B3F5804FFB
:10054C001ED0036D002B2DD0036D012B33D1436CCA
:10055C00C3F3C813026803F0060343F0F1031361FD
:10056C0029E0036D2BB9436C026803F0FE031361A1
:10057C0021E0436C026843F00103DBB213611AE023
:10058C0090F83D30DBB2212B06D0436C026843F06F
:10059C000103DBB213610EE0436C026803F0FE034F
:1005AC00136108E0436CC3F3C813026803F006033D
:1005BC0043F0F003136100207047436C0268DBB218
:1005CC0013610020704710B48DB090F83E30DAB251
:1005DC00C16A046B90F83D30DBB2222B0BD00023A8
:1005EC000B9303685A690B929B690B930B9B00202E
:1005FC000DB010BC7047036D0BB9402A17D0036DBA
:10060C001BB90369B3F5404F19D0438D9BB2002B36
:10061C0025D1039303685A6903929A690392039A4A
:10062C001A6842F400721A6000230365DFE7019335
:10063C0003685A6901929B690193019BD7E70023D8
:10064C00029303685A6902929A690292029A1A6892
:10065C0042F480721A60036D01330365C7E7438D62
:10066C009BB2012B1AD0438D9BB2022B6BD002682C
:10067C00136843F48063136003685A6812F4006FC4
:10068C0003D05A6842F480525A6000230A930368DC
:10069C005A690A929B690A930A9BC5E711F5803F38
:1006AC0016D004293DD008293BD0122C39D0C36A6E
:1006BC00022B30D00268136823F48063136000238C
:1006CC00069303685A6906929B690693069BABE7EF
:1006DC000268136823F48063136003685A6812F489
:1006EC00006F0CD01A6822F480621A600023049305
:1006FC0003685A6904929B690493049B94E7002253
:10070C0005925A6905929A690592059A1A6842F4FB
:10071C0000721A6088E70268136843F48063136000
:10072C00CDE70268136823F48063136000230793FA
:10073C0003685A6907929A690792079A1A6842F4F1
:10074C0000721A6070E7C36A022B1BD00268136830
:10075C0043F4006313600023089303685A690892FA
:10076C009A690892089A1A6822F480621A600368DF
:10077C005A6812F4006F3FF457AF5A6842F4805233
:10078C005A6051E70268136843F4806313600023D6
:10079C00099303685A6909929B690993099BE6E7D7
:1007AC00438D9BB24BB1436A5A1C426202681B7860
:1007BC001361438D013B9BB2438500207047438DF1
:1007CC009BB24BB103681A69436A591C41621A7097
:1007DC00438D013B9BB2438500207047002800F0FD
:1007EC00A28038B5044690F83D30002B4FD024231E
:1007FC0084F83D302268136823F00103136001F084
:10080C0019F962684A4B9A4246D84A4B98428CBFB7
:10081C0000230123002B40F08880474BA3FB0023CF
:10082C009B0C226853606168414A91423AD801336B
:10083C002268136261683E4B99423DD8431E4900C1
:10084C00B3FBF1F30133C3F30B03042B38BF0423C5
:10085C002268D361E369216A22680B431360236920
:10086C00E16822680B4393606369A16922680B43BA
:10087C00D3602268136843F00103136000202064E6
:10088C00202384F83D30206384F83E0038BD80F886
:10089C003C3001F0E9FAAAE7284B98428CBF0023C0
:1008AC000123B7E74FF4967202FB03F3244AA2FB31
:1008BC0003239B090133BBE7A368BBB9421E01EBC1
:1008CC004105B2FBF5F20132C2F30B02B2FA82F22D
:1008DC00520932BBC3B9013801EB4103B0FBF3F34E
:1008EC000133C3F30B0343F40043B1E7421E01EBA6
:1008FC00810505EB8505B2FBF5F20132C2F30B0263
:10090C00B2FA82F25209E4E7013801EB810303EBFE
:10091C008303B0FBF3F30133C3F30B0343F4404302
:10092C0096E7012394E7012070470120AEE700BF52
:10093C00A08601007F841E0083DE1B43FF083D0060
:10094C00D34D621010B483B00023019390F83D3066
:10095C00DBB2202B51D1002953D0002A53D02C4B81
:10096C001B68DB082B4CA4FB03431B0A03EB830320
:10097C0003EB83030193019B5C1E0194002B34D089
:10098C0003689C6914F0020FF5D190F83C40012CDF
:10099C003BD0012480F83C401C6814F0010F03D1BB
:1009AC001C6844F001041C600468236823F4006391
:1009BC002360212380F83D30202380F83E30002333
:1009CC00036441624285144AC262428D0285016809
:1009DC000A6842F480620A6080F83C3001684A6818
:1009EC0042F4E0624A60184608E00363202280F873
:1009FC003D2080F83C30032000E0022003B010BC06
:100A0C0070470120FAE70120F8E70220F6E700BF63
:100A1C000800002089B5F8140000FFFF70477047EC
:100A2C00704708B590F83D30DAB2438D9BB273B184
:100A3C00436A591C416201681B780B61438D013B71
:100A4C009BB24385438D9BB20BB9292A01D0002060
:100A5C0008BD0268536823F4806353602123036349
:100A6C00282380F83D30FFF7DBFFF0E790F83D30AE
:100A7C00DAB2438D9BB2F3B110B503681969436ABE
:100A8C005C1C44621970438D013B9BB24385438DC2
:100A9C009BB20BB92A2A01D0002010BD0268536802
:100AAC0023F48063536022230363282380F83D30B2
:100ABC0001F0A8F9F0E700207047704708B503680B
:100ACC009A6912F0040F09D000219B6913F0800F72
:100ADC0006D0028BFFF7F1FF002008BD0121F4E7DF
:100AEC008289F7E77047000008B590F83D30DBB21B
:100AFC00C26A042A01D0082A01D1282B07D0212B45
:100B0C001FD003686FF480625A61002008BD1A4B35
:100B1C00C3620268536823F4E063536003686FF4A4
:100B2C0080625A610268136823F4806313600023A7
:100B3C000363202280F83D2080F83E30FFF7D2FF7F
:100B4C00E3E70D4BC36221230363202380F83D3080
:100B5C00002380F83E300268536823F4E06353604E
:100B6C0003686FF480625A610268136823F480632F
:100B7C001360FFF755FFC8E70000FFFF704710B583
:100B8C0090F83D30DBB290F83E20D2B2C46A018DB1
:100B9C0009B9212B05D0212B3CD0402A38D000207C
:100BAC0010BD042C04D0082C02D014F5803F19D1B0
:100BBC000268536823F4E06353600268136843F4DB
:100BCC000073136000230363202380F83D3090F8FA
:100BDC003E30DBB2402B15D0002380F83E30FFF7BF
:100BEC001DFFDCE70268536823F4E06353601123B4
:100BFC000363002380F83E30202380F83D30FFF75C
:100C0C000DFFCCE7002380F83E30FFF7B7FFC6E7B7
:100C1C00222BC4D1438D9BB27BB190F83E30DBB21A
:100C2C00402B10D0436A5A1C426202681B78136135
:100C3C00438D013B9BB24385B1E70268536823F4B3
:100C4C0080635360ABE7036D9BB9C36C012B08D079
:100C5C00836CC3F3072302681361036D01330365CF
:100C6C009DE7836C0268DBB21361036D023303658D
:100C7C0095E7036D012B17D0036D022B8FD190F8E4
:100C8C003D30DBB2222B17D090F83D30DBB2212B5C
:100C9C0085D1436A5A1C426202681B781361438DEA
:100CAC00013B9BB243857AE7836C0268DBB213612C
:100CBC00036D0133036572E70268136843F48073B4
:100CCC0013606CE708B5C26A90F83D30DBB2212B9B
:100CDC0001D0002008BD438D9BB203BB042A04D075
:100CEC00082A02D012F5803F24D10268536823F4FD
:100CFC00E06353600268136843F4007313600023CD
:100D0C000363202380F83D3090F83E30DBB2402B5B
:100D1C0020D0002380F83E30FFF780FED9E7436AED
:100D2C005A1C426202681B781361438D013B9BB2D3
:100D3C004385CEE70268536823F4E06353601123C4
:100D4C000363002380F83E30202380F83D30FFF70A
:100D5C0065FEBEE7002380F83E30FFF70FFFB8E7D3
:100D6C00704708B590F83D30DBB2222B01D0002043
:100D7C0008BD438D9BB2032B29D8023B012B31D9E3
:100D8C00C36A022B47D00268136823F48063136094
:100D9C000268536823F4E063536003681A69436A7A
:100DAC00591C41621A70438D013B9BB24385202331
:100DBC0080F83D300023036390F83E30DBB2402BCB
:100DCC002FD0002380F83E30FFF729FECFE70368D1
:100DDC001A69436A591C41621A70438D013B9BB2DC
:100DEC004385C4E7C36A022B0FD00268136823F44F
:100DFC00806313600268136843F400631360026835
:100E0C00536823F480635360B1E70268136843F4BA
:100E1C0080631360F3E70268136843F48063136024
:100E2C00B6E7002380F83E30FFF79AFF9FE708B53E
:100E3C00C26A438D9BB2032B0FD0438D9BB2022B06
:100E4C0022D003681A69436A591C41621A70438D97
:100E5C00013B9BB24385002008BD042A04D0082A1C
:100E6C0002D012F5803F04D10268136823F480632A
:100E7C00136003681A69436A591C41621A70438DE6
:100E8C00013B9BB24385E6E7042A17D0082A15D00C
:100E9C0012F5803F12D0022A0AD00268136823F49C
:100EAC00806313600268536823F4407353600FE04F
:100EBC000268136843F480631360F3E702685368B5
:100ECC0023F4407353600268136843F40073136097
:100EDC0003681A69436A591C41621A70438D013BBD
:100EEC009BB2438503681A69436A591C41621A70A4
:100EFC00438D013B9BB24385202380F83D3000237A
:100F0C00036390F83E30DBB2402B05D0002380F811
:100F1C003E30FFF784FD9EE7002380F83E30FFF75C
:100F2C001FFF98E77047704710B5044690F83D30A6
:100F3C00293B012B36D990F83D30DBB2602B07D022
:100F4C0003685B6813F4006F02D1202380F83D30F6
:100F5C000023236384F83E302268136823F4006373
:100F6C00136023685A6812F4006F3ED05A6822F45A
:100F7C0000625A60636B93F82120012A18D03A4A18
:100F8C005A63606BFFF794F900283FD0226813680E
:100F9C0023F001031360202384F83D30606B436B16
:100FAC00984733E000230363282380F83D30D3E7D0
:100FBC00A36B2D4A5A63A06BFFF77AF930B3236801
:100FCC005A6912F0400F04D01A69636A591C6162A5
:100FDC001A702268136823F001031360202384F82D
:100FEC003D30A06B436B984710E094F83D20D2B293
:100FFC00602A11D05A6912F0400F04D01A69636A42
:10100C00591C61621A702046FFF78CFF94F83D3032
:10101C00DBB2282B17D010BD202284F83D200022F3
:10102C0022645A6912F0400F04D01A69636A591C81
:10103C0061621A702268136823F001031360204662
:10104C00FFF771FFE2E7236C13F0040FE3D0074BBB
:10105C00E36200232363202284F83D2084F83E3091
:10106C002046FFF73FFDD6E7C11300080000FFFF45
:10107C0010B582B090F83D30DBB201684A6822F4BA
:10108C00E0624A6000220192026851690191116884
:10109C0041F001011160019A01680A6822F4806232
:1010AC000A6001684A6812F4006F14D090F83D2071
:1010BC00D2B2222A0AD090F83D20D2B22A2A05D0E8
:1010CC00426B1268526892B2428504E0826B1268DD
:1010DC00526892B24285428D92B2F2B14A6912F0D4
:1010EC00040F08D00969426A541C44621170428D85
:1010FC00013A92B242850268516911F0400F08D052
:10110C001169426A541C44621170428D013A92B2C8
:10111C004285026C42F004020264026CA2B9282BD4
:10112C0015D02A2B13D0292B11D0026B222A01D0D7
:10113C00222B17D100230363202280F83D2080F856
:10114C003E3000F05FFE0DE0FFF7EEFE0AE0074BCD
:10115C00C36200230363202280F83D2080F83E30D8
:10116C00FFF7C0FC002002B010BD00BF0000FFFF65
:10117C00F8B5054603689F695C695E6890F83E3077
:10118C00DBB2102B25D0402B23D04C4B234013B17A
:10119C0016F4007F6ED14A4B234013B116F4007F36
:1011AC006BD1484B3B40002B6FD0474B234033B1A6
:1011BC0016F4806F03D0454B2340002B61D0434B7A
:1011CC00234053B316F4007F27D02846FFF7E8FAE4
:1011DC0023E014F0011F02D016F4007F1ED13C4B0B
:1011EC00234013B116F4007F1CD1344B234013B1B0
:1011FC0016F4007F1AD1334B3B401BB3324B2340C8
:10120C002BB116F4806F02D0304B234093B12F4B8F
:10121C00234013B116F4007F10D1F8BD2846FFF718
:10122C0087F9E8E72846FFF7C8F9E4E72846FFF70F
:10123C00CAF9E0E72846FFF7A2FCEEE72846FFF7DD
:10124C0041FDEAE7234B23402BB116F4806F02D00B
:10125C001E4B234053B11D4B2340002BDDD016F405
:10126C00007FDAD02846FFF7E2FDD6E72846FFF7E5
:10127C0078FDD2E7FFF722FCCFE72846FFF7F8FE10
:10128C00CBE72846FFF7CDFBC7E7124B23402BB12A
:10129C0016F4806F02D00D4B234053B10B4B2340FF
:1012AC00002BBAD016F4007FB7D02846FFF787FA88
:1012BC00B3E72846FFF7DAFBAFE700BF02000100F7
:1012CC001000010004001000800001000400010067
:1012DC00080001004000010070B5044603685D6918
:1012EC005E68334A15420ED016F4807F0BD0026C28
:1012FC0042F0010202646FF480725A610268136852
:10130C0043F40043136015F4813F0AD016F4807F38
:10131C0007D0236C43F00203236423686FF400723C
:10132C005A6115F4823F1AD016F4807F17D094F8C6
:10133C003E30DBB2628D91B294F83D20D2B2206B7C
:10134C00202B1DD0236C43F00403236494F83E300F
:10135C00DBB2102B22D023686FF480625A6115F433
:10136C00843F0AD016F4807F07D0236C43F0080327
:10137C00236423686FF400625A61236CA3B970BDB7
:10138C000029DFD1212A05D0292A03D0282AD9D136
:10139C002128D7D12046FFF7A7FBE0E72268136886
:1013AC0043F400731360D6E72046FFF7BDFDE6E774
:1013BC000001010008B5406A0268136823F48063D9
:1013CC00136000234385426B5363826B536390F825
:1013DC003D30DBB2602B0DD0202380F83D30002354
:1013EC0080F83E300268136823F001031360FFF7A6
:1013FC0099FD08BD202380F83D30002380F83E3055
:10140C0003640268136823F001031360FFF78BFD7C
:10141C00EFE7000082B0084B1B68084AA2FB0323CD
:10142C005B0A00FB03F0019000BF019B5A1E019266
:10143C00002BF9D102B0704708000020D34D621088
:10144C0070B582B00446036813F0010F2CD0AB4B7F
:10145C005B6803F00C03042B1DD0A84B5B6803F0F6
:10146C000C03082B12D06368B3F5803F41D0002BDE
:10147C0055D103F1804303F504331A6822F480320A
:10148C001A601A6822F480221A6037E09B4B5B6862
:10149C0013F4803FE7D0994B1B6813F4003F03D043
:1014AC006368002B00F0AE81236813F0020F76D036
:1014BC00924B5B6813F00C0F5FD0904B5B6803F0A2
:1014CC000C03082B54D02369002B00F08A808C4B22
:1014DC0001221A60FEF77EFE0546884B1B6813F04E
:1014EC00020F75D1FEF776FE401B0228F5D90320BA
:1014FC008BE1824A136843F480331360636843B30F
:10150C00FEF768FE05467D4B1B6813F4003FCBD1FC
:10151C00FEF760FE401B6428F5D9032075E1B3F596
:10152C00A02F09D0754B1A6822F480321A601A6801
:10153C0022F480221A60E1E703F18043A3F53C33E7
:10154C001A6842F480221A601A6842F480321A60D7
:10155C00D4E7FEF73FFE0546684B1B6813F4003FCB
:10156C00A2D0FEF737FE401B6428F5D903204CE1CE
:10157C00624B5B6813F4803FA5D1604B1B6813F082
:10158C00020F04D02369012B01D001203DE15B4AFD
:10159C00136823F0F803616943EAC10313602368FD
:1015AC0013F0080F32D0A369002B5BD0554B0122EE
:1015BC001A60FEF70FFE0546504B5B6A13F0020FE4
:1015CC0021D1FEF707FE401B0228F5D903201CE1B0
:1015DC004A4A136823F0F803616943EAC1031360B4
:1015EC00DDE7474B00221A60FEF7F4FD0546434B3E
:1015FC001B6813F0020FD2D0FEF7ECFD401B022843
:10160C00F5D9032001E10120FFF704FF236813F053
:10161C00040F00F09780394BDB6913F0805F33D1F6
:10162C00364BDA6942F08052DA61DB6903F08053A1
:10163C000193019B0125344B1B6813F4807F25D04B
:10164C00E368012B36D0002B4CD103F1804303F51A
:10165C0004331A6A22F001021A621A6A22F0040296
:10166C001A622CE0274B00221A60FEF7B3FD0546E8
:10167C00224B5B6A13F0020FC8D0FEF7ABFD401B88
:10168C000228F5D90320C0E00025D4E71E4A1368D0
:10169C0043F480731360FEF79DFD06461A4B1B68DE
:1016AC0013F4807FCCD1FEF795FD801B6428F5D90F
:1016BC000320AAE0114A136A43F001031362E368A2
:1016CC0073B3FEF787FD06460C4B1B6A13F0020F33
:1016DC0037D1FEF77FFD801B41F288339842F3D956
:1016EC00032092E0052B11D0044B1A6A22F0010260
:1016FC001A621A6A22F004021A62E0E70010024031
:10170C00000042428004424200700040414B1A6A81
:10171C0042F004021A621A6A42F001021A62CEE71F
:10172C00FEF758FD06463B4B1B6A13F0020F08D020
:10173C00FEF750FD801B41F288339842F3D9032009
:10174C0063E0E5B9E369002B5ED0324A526802F0DF
:10175C000C02082A5BD0022B17D02F4B00221A60E8
:10176C00FEF738FD04462B4B1B6813F0007F47D067
:10177C00FEF730FD001B0228F5D9032045E0254A71
:10178C00D36923F08053D361DCE7234B00221A602A
:10179C00FEF720FD05461F4B1B6813F0007F06D09B
:1017AC00FEF718FD401B0228F5D903202DE0236A13
:1017BC00B3F5803F1AD017494B6823F47413226A8F
:1017CC00606A024313434B60134B01221A60FEF70D
:1017DC0001FD04460F4B1B6813F0007F0ED1FEF782
:1017EC00F9FC001B0228F5D903200EE0094A5368C6
:1017FC0023F40033A1680B435360DCE7002004E0C2
:10180C00002002E0012000E0002002B070BD0120A9
:10181C00FBE700BF001002406000424210B487B0EA
:10182C00164C94E80F000DF1180C0CE90F00238AEC
:10183C00ADF80430124B5B6803F00C02082A1AD185
:10184C00C3F38342624412F8102C13F4803F05D189
:10185C000C4800FB02F007B010BC7047084B5B68EB
:10186C00C3F34043634413F8143C074800FB02F0F5
:10187C00B0FBF3F0EFE70448EDE700BF38290008B0
:10188C000010024000093D0000127A00624B1B68F8
:10189C0003F007038B420CD25F4A136823F0070353
:1018AC000B431360136803F007038B4201D0012034
:1018BC00704770B5036813F0020F17D013F0040FC4
:1018CC0004D0564A536843F4E0635360036813F042
:1018DC00080F04D0514A536843F4605353604F4A85
:1018EC00536823F0F0038468234353600D46044689
:1018FC00036813F0010F52D04368012B23D0022B45
:10190C0028D0464A126812F0020F00F08280434938
:10191C004A6822F0030213434B60FEF75BFC064659
:10192C006368012B1DD0022B2AD03C4B5B6813F053
:10193C000C0F34D0FEF74EFC801B41F288339842DA
:10194C00F3D9032064E0354A126812F4003FDED16B
:10195C0001205DE0314A126812F0007FD7D10120DE
:10196C0056E02E4B5B6803F00C03042B17D0FEF7EC
:10197C0031FC801B41F288339842F2D9032047E0B6
:10198C00264B5B6803F00C03082B08D0FEF722FCF7
:10199C00801B41F288339842F2D9032038E01E4B69
:1019AC001B6803F00703AB420CD91B4A136823F0E6
:1019BC0007032B431360136803F00703AB4201D0FA
:1019CC00012025E0236813F0040F06D0134A536856
:1019DC0023F4E063E1680B435360236813F0080FB2
:1019EC0007D00E4A536823F46053216943EAC103BC
:1019FC005360FFF713FF094B5B68C3F30313084AEB
:101A0C00D35CD840074B18600020FEF7A1FB0020E8
:101A1C0070BD0120FCE700BF002002400010024016
:101A2C004C29000808000020014B1868704700BFC3
:101A3C000800002008B5FFF7F7FF044B5B68C3F301
:101A4C000223034AD35CD84008BD00BF00100240FB
:101A5C005C29000808B5FFF7E7FF044B5B68C3F38C
:101A6C00C223034AD35CD84008BD00BF001002401B
:101A7C005C2900082DE9F84305460268136923F434
:101A8C004053C1680B431361836802691343426975
:101A9C0013430168CA6822F4B05222F00C021343BB
:101AAC00CB600268536923F4407381690B43536123
:101ABC000268594B9A4257D0FFF7BCFF00EB8000ED
:101ACC0000EB80006C68A400B0FBF4F4534FA7FB50
:101ADC00043464092601FFF7ADFF00EB800000EB36
:101AEC0080006C68A400B0FBF4F9FFF7A3FF00EBD7
:101AFC00800000EB80006C68A400B0FBF4F4A7FB42
:101B0C00043464094FF0640808FB14942401323443
:101B1C00A7FB0434640904F0F0043444FFF78AFF93
:101B2C0000EB800000EB80006E68B600B0FBF6F6B0
:101B3C00FFF780FF00EB800000EB80006B689B00E0
:101B4C00B0FBF3F0A7FB0030400908FB10684FEA2C
:101B5C00081808F13208A7FB0837C7F343172B689E
:101B6C0027449F60BDE8F883FFF774FF00EB80000B
:101B7C0000EB80006C68A400B0FBF4F4274FA7FBCB
:101B8C00043464092601FFF765FF00EB800000EBCD
:101B9C0080006C68A400B0FBF4F9FFF75BFF00EB6E
:101BAC00800000EB80006C68A400B0FBF4F4A7FB91
:101BBC00043464094FF0640808FB14942401323493
:101BCC00A7FB0434640904F0F0043444FFF742FF2B
:101BDC0000EB800000EB80006E68B600B0FBF6F600
:101BEC00FFF738FF00EB800000EB80006B689B0078
:101BFC00B0FBF3F0A7FB0030400908FB10684FEA7C
:101C0C00081808F13208A7FB0837C7F343172B68ED
:101C1C0027449F60A6E700BF003801401F85EB51A9
:101C2C0058B310B5044690F839300BB3242384F81C
:101C3C0039302268D36823F40053D3602046FFF771
:101C4C0019FF2268136923F49043136122685369C6
:101C5C0023F02A0353612268D36843F40053D36002
:101C6C000020E063202384F8393084F83A3010BD2A
:101C7C0080F8383000F044F9D8E7012070470000B4
:101C8C0030B589B0002404940594069407941D4B38
:101C9C009A6942F010029A619A6902F0100200925D
:101CAC00009A9A6942F020029A619A6902F0200225
:101CBC000192019A9A6942F004029A619A6902F0BF
:101CCC0004020292029A9A6942F008029A619B6994
:101CDC0003F008030393039B0B4D22464FF4005172
:101CEC002846FEF71BFC4FF4005304930123059385
:101CFC0006940223079304A92846FEF725FB09B096
:101D0C0030BD00BF001002400010014008B509486A
:101D1C00094B0360094B4360002383600E22C260B1
:101D2C004FF48042026143618361C3610362FEF739
:101D3C0055FD08BDC000002000540040A0860100E5
:101D4C0008B50848084B03604FF4E13343600023A7
:101D5C008360C36003610C2242618361C361FFF73E
:101D6C005FFF08BD140100200038014030B591B070
:101D7C000024089409940B940C94019402940394F9
:101D8C0004940594012206924FF4803307930A922F
:101D9C0002250D950E934FF4E0130F9306A8FFF751
:101DAC004FFB0F230193029503944FF4806304932C
:101DBC000594294601A8FFF769FD11B030BD00005C
:101DCC0008B5FEF7E9F9FFF7D1FFFFF759FFFFF769
:101DDC009DFFFFF7B5FF074C074A0849204600F066
:101DEC0087F92046FEF7ACF982B221460448FEF78B
:101DFC00A9FDFEE7A0000020642900088429000842
:101E0C00C000002008B5054B834200D008BD4FF43C
:101E1C0000510348FEF788FBF8E700BFC000002024
:101E2C000010014082B00E4B9A6942F001029A6197
:101E3C009A6902F001020092009ADA6942F080522B
:101E4C00DA61DB6903F080530193019B054A536807
:101E5C0023F0E06343F00073536002B0704700BF9F
:101E6C00001002400000014010B586B00023029320
:101E7C0003930493059302681D4B9A4201D006B05C
:101E8C0010BD1C4CA36943F00803A361A36903F0C4
:101E9C0008030093009B4FF44073029312230393A7
:101EAC000323059302A91448FEF74EFA134A53680C
:101EBC0043F0E06343F002035360E36943F400131F
:101ECC00E361E36903F400130193019B00221146C3
:101EDC001F20FEF797F91F20FEF7C8F900221146C4
:101EEC002020FEF78FF92020FEF7C0F9C7E700BFCE
:101EFC000054004000100240000C01400000014062
:101F0C0010B586B0002302930393049305930268E3
:101F1C00174B9A4201D006B010BD03F558439A698D
:101F2C0042F480429A619A6902F480420092009ACB
:101F3C009A6942F004029A619B6903F004030193CD
:101F4C00019B4FF400730293022303930323059325
:101F5C00084C02A92046FEF7F7F94FF48063029370
:101F6C0000230393049302A92046FEF7EDF9D2E770
:101F7C0000380140000801407047FEE7FEE7FEE72D
:101F8C00FEE770477047704708B5FEF717F908BDB4
:101F9C0038B5074C2046FFF7EBF8064D2846FEF700
:101FAC00CFF882B229462046FEF7CCFC38BD00BFE4
:101FBC00C0000020A000002008B50248FFF78CF9F3
:101FCC0008BD00BFC000002008B503460B4A1268CC
:101FDC0042B10A4A106803446A46934206D8074A3B
:101FEC00136008BD054A06491160F2E700F056F887
:101FFC000C2303604FF0FF30F3E700BF8C00002090
:10200C00580100200F4B1A6842F001021A605968FF
:10201C000D4A0A405A601A6822F0847222F4803207
:10202C001A601A6822F480221A605A6822F4FE029E
:10203C005A604FF41F029A60044B4FF000629A6092
:10204C00704700BF001002400000FFF800ED00E0F8
:10205C00002103E00B4B5B58435004310A480B4BF7
:10206C0042189A42F6D30A4A02E0002342F8043B93
:10207C00084B9A42F9D3FFF7C5FF00F015F8FFF7AC
:10208C009FFE7047C8290008000000207000002047
:10209C007000002058010020FEE70000014B18687A
:1020AC00704700BF0C00002070B500250C4E0D4C85
:1020BC00A41BA410A54209D100F02CFC00250A4E4B
:1020CC000A4CA41BA410A54205D170BD56F82530AE
:1020DC0098470135EEE756F8253098470135F2E779
:1020EC00C0290008C0290008C0290008C42900081C
:1020FC000EB46FF0004100B59CB01DAB0290069081
:10210C00079104910848094953F8042B059100687C
:10211C0002A9019300F066F80022029B1A701CB011
:10212C005DF804EB03B070470C0000200802FFFFC1
:10213C002DE9F0478E6882469E420C4690469946A1
:10214C0037D88A8912F4906F31D002232568096937
:10215C006F1A656905EB450595FBF3F509F101036C
:10216C003B449D4238BF1D46530530D5294600F0EF
:10217C0037FB064650B90C234FF0FF30CAF800303D
:10218C00A38943F04003A381BDE8F0873A46216957
:10219C0000F0B6FAA38923F4906343F08003A38183
:1021AC0026613E4426604E466561ED1BA5604E459A
:1021BC0000D94E4632464146206800F0ACFAA3687E
:1021CC0000209B1BA36023681E442660DCE72A4684
:1021DC0000F060FB06460028E2D12169504600F071
:1021EC00B3FAC8E72DE9F04F1D468B899DB01F0649
:1021FC0080460C4616460FD50B696BB9402100F092
:10220C00EFFA2060206128B90C23C8F800304FF099
:10221C00FF30C8E0402363610023099320238DF82D
:10222C00293030234FF0010B8DF82A3003953746B7
:10223C003D4615F8013B0BB1252B3ED1B7EB060AF9
:10224C000BD05346324621464046FFF771FF013012
:10225C0000F0A480099B534409933B78002B00F0B9
:10226C009D8000234FF0FF32CDE9052304930793A3
:10227C008DF853301A932F46052217F8011B50483E
:10228C0000F030FA049BD0B9D90644BF20228DF857
:10229C0053201A0744BF2B228DF853202A782A2A60
:1022AC0015D02F4600200A25079A394611F8013B14
:1022BC00303B092B4DD9B8B10FE02F46B8E7404A57
:1022CC003D46801A0BFA00F018430490D3E7039AAA
:1022DC00111D12680391002A01DB079204E052429F
:1022EC0043F00203079204933B782E2B0CD17B789E
:1022FC002A2B33D1039B02371A1D1B680392002B28
:10230C00B8BF4FF0FF3305932E4D03223978284682
:10231C0000F0E8F938B14023401B03FA00F0049BAD
:10232C000137034304933978062227487E1C8DF825
:10233C00281000F0D7F9002838D0244B13BB039B8E
:10234C00073323F0070308330393099B4B4409938A
:10235C006DE705FB023201200F46A6E700230A2594
:10236C00194601370593384610F8012B303A092AE3
:10237C0003D9002BC8D00591C6E705FB0121012329
:10238C000746F0E703AB00932246114B04A94046E5
:10239C00AFF30080B0F1FF3F8146D6D1A3895B0635
:1023AC003FF535AF09981DB0BDE8F08F03AB009336
:1023BC002246074B04A9404600F082F8EAE700BF2A
:1023CC008C290008922900089629000800000000BA
:1023DC003D2100082DE9F04791461F468A680B699C
:1023EC0006469342B8BF1346C9F8003091F8432013
:1023FC000C46DDF8208012B10133C9F80030236897
:10240C00990642BFD9F800300233C9F8003025686C
:10241C0015F0060507D104F1190AE368D9F8002074
:10242C009B1AAB4229DC94F843302268003318BF66
:10243C00012392062ED404F1430239463046C0479C
:10244C00013021D02368E56803F00603042B18BF84
:10245C000025D9F800204FF0000908BFAD1AA36879
:10246C00226908BF25EAE5759342C4BF9B1AED1893
:10247C001A344D451AD1002008E001235246394642
:10248C003046C047013003D14FF0FF30BDE8F08734
:10249C000135C2E73020E11881F843005A1C94F84A
:1024AC0045102244023382F84310C4E7012322462C
:1024BC0039463046C0470130E6D009F10109D8E76A
:1024CC002DE9F04301F1430C0C46097E85B06E29D1
:1024DC001746064698460C9A00F0B38022D863291A
:1024EC0036D00AD8002900F0B980582900F0838032
:1024FC0004F1420584F8421032E0642901D06929C4
:10250C00F6D120681368050603F104012AD51B686F
:10251C001160002B03DA2D225B4284F843206F48B4
:10252C000A2239E0732900F09D8008D86F2920D049
:10253C007029DDD1236843F02003236003E0752963
:10254C0017D07829D4D17823654884F8453055E0E4
:10255C00136804F14205191D1B68116084F84230A0
:10256C0001238CE01B6810F0400F116018BF1BB2E8
:10257C00CFE713682568181D1060280601D51B6865
:10258C0002E06806FBD51B886F2914BF0A220822BB
:10259C005248002184F843106568002DA560C0F2F4
:1025AC009580216821F004012160002B3DD1002D84
:1025BC0040F08E806546082A0BD12368DB0708D5CE
:1025CC00236962689A42DEBF302305F8013C05F1AD
:1025DC00FF35ACEB05032361CDF800803B4603AA25
:1025EC0021463046FFF7F6FE01304DD14FF0FF305B
:1025FC0005B0BDE8F083394884F8451013682168AC
:10260C001D1D1B6815600A060BD5CA0744BF41F097
:10261C00200121601BB9226822F0200222601022C6
:10262C00B7E74D0648BF9BB2EFE76546B3FBF2F147
:10263C0002FB1133C35C05F8013D0B460029F5D1B3
:10264C00B9E713682568181D6169106028061B68B6
:10265C0001D5196002E06A06FBD519800023654696
:10266C002361B9E71368191D11601D6862680021A8
:10267C00284600F037F808B1401B6060636823619E
:10268C00002384F84330A7E723692A4639463046AD
:10269C00C0470130AAD023689B0713D4E068039B82
:1026AC009842B8BF1846A3E701234A46394630463C
:1026BC00C04701309AD00135E368039A9B1AAB42AC
:1026CC00F2DCEBE7002504F11909F5E7002BACD19E
:1026DC00037804F1420584F842306CE79D29000828
:1026EC00AE29000810B5C9B202449042034601D18C
:1026FC00002303E01C7801308C42F6D1184610BD43
:10270C0010B5431E0A44914200D110BD11F8014B83
:10271C0003F8014FF7E7884210B501EB020307D825
:10272C00421E99420AD011F8014B02F8014FF8E70A
:10273C008342F5D98118D21AD34200D110BD13F8B7
:10274C00014D01F8014DF7E738B50546002943D096
:10275C0051F8043C0C1F002BB8BFE41800F0D0F863
:10276C001E4A1368104633B9636014602846BDE8EE
:10277C00384000F0C6B8A3420BD9216862189342C6
:10278C0001BF1A685B685218226063600460EDE751
:10279C0013465A680AB1A242FAD919685818A042CD
:1027AC000BD120680144581882421960DED11068A0
:1027BC005268014419605A60D8E702D90C232B6087
:1027CC00D4E7206821188A4201BF116852680918A1
:1027DC00216062605C60C9E738BD00BF94000020D6
:1027EC0070B5CD1C25F0030508350C2D38BF0C2514
:1027FC00002D064601DBA94203D90C2333600020CF
:10280C0070BD00F07DF8214A1468214691B9204C26
:10281C0023681BB9304600F063F820602946304627
:10282C0000F05EF8431C24D10C233046336000F0DA
:10283C0068F8E4E70B685B1B18D40B2B0FD90B6003
:10284C00CC18CD50304600F05CF804F10B00231D81
:10285C0020F00700C31AD3D05A42E250D0E74B689D
:10286C008C4216BF636013600C46EBE70C4649685C
:10287C00CCE7C41C24F00304A04205D0211A304636
:10288C0000F02EF80130CFD02560DBE7940000205B
:10289C0098000020F8B5074614460E4621B9BDE84D
:1028AC00F8401146FFF79CBF22B9FFF74DFF2546B4
:1028BC002846F8BD00F026F8A0420FD22146384633
:1028CC00FFF78EFF05460028F2D031462246FFF76F
:1028DC0017FF31463846FFF737FFE9E73546E7E79C
:1028EC0038B50023054C054608462360FFF76CFB02
:1028FC00431C02D1236803B12B6038BD5401002066
:10290C007047704751F8043C181F002BBCBF0B5884
:10291C00C0187047F8B500BFF8BC08BC9E4670479D
:0C292C00F8B500BFF8BC08BC9E46704720
:1029380002030405060708090A0B0C0D0E0F1010F8
:102948000102000000000000000000000102030472
:102958000607080900000000010203045673655FBA
:10296800706163616E695F506F676E616C695F6506
:1029780036616E615F765F726F74000025730D0AB1
:1029880000000000232D302B2000686C4C00656689
:1029980067454647003031323334353637383941A8
:1029A80042434445460030313233343536373839BE
:0829B8006162636465660000C2
:0429C00031010008D9
:0429C4000D010008F9
:1029C800010000001000000000A24A0410000020CE
:1029D80000000000000000000000000000000000EF
:1029E80000000000000000000000000000000000DF
:1029F80000000000000000000000000000000000CF
:102A080000000000000000000000000000000000BE
:102A180000000000000000000000000000000000AE
:102A2800000000000000000000000000000000009E
:040000050800205D72
:00000001FF
